{
  "_format": "hh-sol-artifact-1",
  "contractName": "TradeFinance",
  "sourceName": "contracts/TradeFinance.sol",
  "abi": [
    {
      "anonymous": false,
      "inputs": [
        {
          "indexed": false,
          "internalType": "uint256",
          "name": "bankID",
          "type": "uint256"
        }
      ],
      "name": "BankAdded",
      "type": "event"
    },
    {
      "anonymous": false,
      "inputs": [
        {
          "indexed": false,
          "internalType": "uint256",
          "name": "lcID",
          "type": "uint256"
        }
      ],
      "name": "DocUploaded",
      "type": "event"
    },
    {
      "anonymous": false,
      "inputs": [
        {
          "indexed": false,
          "internalType": "uint256",
          "name": "lcID",
          "type": "uint256"
        },
        {
          "indexed": false,
          "internalType": "uint256",
          "name": "salesContractID",
          "type": "uint256"
        }
      ],
      "name": "LcCreated",
      "type": "event"
    },
    {
      "anonymous": false,
      "inputs": [
        {
          "indexed": true,
          "internalType": "address",
          "name": "previousOwner",
          "type": "address"
        },
        {
          "indexed": true,
          "internalType": "address",
          "name": "newOwner",
          "type": "address"
        }
      ],
      "name": "OwnershipTransferred",
      "type": "event"
    },
    {
      "anonymous": false,
      "inputs": [
        {
          "indexed": false,
          "internalType": "uint256",
          "name": "salesContractID",
          "type": "uint256"
        }
      ],
      "name": "SalesContractCreated",
      "type": "event"
    },
    {
      "inputs": [
        {
          "internalType": "string",
          "name": "name",
          "type": "string"
        },
        {
          "internalType": "address",
          "name": "bankAddress",
          "type": "address"
        }
      ],
      "name": "addBank",
      "outputs": [
        {
          "internalType": "uint256",
          "name": "bankID",
          "type": "uint256"
        }
      ],
      "stateMutability": "nonpayable",
      "type": "function"
    },
    {
      "inputs": [
        {
          "internalType": "uint256",
          "name": "lcID",
          "type": "uint256"
        }
      ],
      "name": "approveLC",
      "outputs": [
        {
          "internalType": "bool",
          "name": "sucess",
          "type": "bool"
        }
      ],
      "stateMutability": "nonpayable",
      "type": "function"
    },
    {
      "inputs": [
        {
          "internalType": "uint256",
          "name": "lcID",
          "type": "uint256"
        },
        {
          "internalType": "string",
          "name": "status",
          "type": "string"
        }
      ],
      "name": "changeLcStatus",
      "outputs": [
        {
          "internalType": "bool",
          "name": "success",
          "type": "bool"
        }
      ],
      "stateMutability": "nonpayable",
      "type": "function"
    },
    {
      "inputs": [
        {
          "internalType": "uint256",
          "name": "salesContractID",
          "type": "uint256"
        },
        {
          "internalType": "string",
          "name": "startDate",
          "type": "string"
        }
      ],
      "name": "createLC",
      "outputs": [
        {
          "internalType": "uint256",
          "name": "lcID",
          "type": "uint256"
        }
      ],
      "stateMutability": "nonpayable",
      "type": "function"
    },
    {
      "inputs": [
        {
          "internalType": "string",
          "name": "importer",
          "type": "string"
        },
        {
          "internalType": "string",
          "name": "exporter",
          "type": "string"
        },
        {
          "internalType": "uint256",
          "name": "issuingBankID",
          "type": "uint256"
        },
        {
          "internalType": "uint256",
          "name": "advisingBankID",
          "type": "uint256"
        },
        {
          "internalType": "string",
          "name": "commodity",
          "type": "string"
        },
        {
          "internalType": "string",
          "name": "price",
          "type": "string"
        },
        {
          "internalType": "string",
          "name": "paymentMethod",
          "type": "string"
        },
        {
          "internalType": "string",
          "name": "additionalInfo",
          "type": "string"
        },
        {
          "internalType": "uint256",
          "name": "deadline",
          "type": "uint256"
        }
      ],
      "name": "createSalesContract",
      "outputs": [
        {
          "internalType": "uint256",
          "name": "salesContractID",
          "type": "uint256"
        }
      ],
      "stateMutability": "nonpayable",
      "type": "function"
    },
    {
      "inputs": [],
      "name": "getAllBankAddress",
      "outputs": [
        {
          "internalType": "address[]",
          "name": "",
          "type": "address[]"
        }
      ],
      "stateMutability": "view",
      "type": "function"
    },
    {
      "inputs": [
        {
          "internalType": "uint256",
          "name": "id",
          "type": "uint256"
        }
      ],
      "name": "getBank",
      "outputs": [
        {
          "internalType": "address",
          "name": "bankAddress",
          "type": "address"
        },
        {
          "internalType": "string",
          "name": "name",
          "type": "string"
        }
      ],
      "stateMutability": "view",
      "type": "function"
    },
    {
      "inputs": [],
      "name": "owner",
      "outputs": [
        {
          "internalType": "address",
          "name": "",
          "type": "address"
        }
      ],
      "stateMutability": "view",
      "type": "function"
    },
    {
      "inputs": [
        {
          "internalType": "uint256",
          "name": "lcID",
          "type": "uint256"
        }
      ],
      "name": "rejectLC",
      "outputs": [
        {
          "internalType": "bool",
          "name": "sucess",
          "type": "bool"
        }
      ],
      "stateMutability": "nonpayable",
      "type": "function"
    },
    {
      "inputs": [],
      "name": "renounceOwnership",
      "outputs": [],
      "stateMutability": "nonpayable",
      "type": "function"
    },
    {
      "inputs": [
        {
          "internalType": "address",
          "name": "newOwner",
          "type": "address"
        }
      ],
      "name": "transferOwnership",
      "outputs": [],
      "stateMutability": "nonpayable",
      "type": "function"
    },
    {
      "inputs": [
        {
          "internalType": "uint256",
          "name": "lcID",
          "type": "uint256"
        },
        {
          "internalType": "string",
          "name": "invoice",
          "type": "string"
        },
        {
          "internalType": "string",
          "name": "exchange",
          "type": "string"
        },
        {
          "internalType": "string",
          "name": "lading",
          "type": "string"
        },
        {
          "internalType": "string",
          "name": "other",
          "type": "string"
        }
      ],
      "name": "uploadDocument",
      "outputs": [
        {
          "internalType": "bool",
          "name": "success",
          "type": "bool"
        }
      ],
      "stateMutability": "nonpayable",
      "type": "function"
    }
  ],
  "bytecode": "0x608060405260006001556000600255600060035534801561001f57600080fd5b5061003c61003161004160201b60201c565b61004960201b60201c565b61010d565b600033905090565b60008060009054906101000a900473ffffffffffffffffffffffffffffffffffffffff169050816000806101000a81548173ffffffffffffffffffffffffffffffffffffffff021916908373ffffffffffffffffffffffffffffffffffffffff1602179055508173ffffffffffffffffffffffffffffffffffffffff168173ffffffffffffffffffffffffffffffffffffffff167f8be0079c531659141344cd1fd0a4f28419497f9722a3daafe3b4186f6b6457e060405160405180910390a35050565b6119778061011c6000396000f3fe608060405234801561001057600080fd5b50600436106100b45760003560e01c80638ebd2075116100715780638ebd20751461018f578063c3b95b1b146101bf578063c8a15cbe146101f0578063dc10f57614610220578063ecfeae3a14610250578063f2fde38b14610280576100b4565b806328da13ea146100b9578063637b3a60146100e95780637011897514610107578063715018a61461013757806372c269bb146101415780638da5cb5b14610171575b600080fd5b6100d360048036038101906100ce9190610cd8565b61029c565b6040516100e09190610d20565b60405180910390f35b6100f1610305565b6040516100fe9190610e2b565b60405180910390f35b610121600480360381019061011c9190610f93565b61040a565b60405161012e9190611114565b60405180910390f35b61013f61061d565b005b61015b6004803603810190610156919061112f565b610631565b6040516101689190610d20565b60405180910390f35b61017961069f565b6040516101869190611229565b60405180910390f35b6101a960048036038101906101a49190611244565b6106c8565b6040516101b69190610d20565b60405180910390f35b6101d960048036038101906101d49190610cd8565b6106fd565b6040516101e792919061131f565b60405180910390f35b61020a60048036038101906102059190610cd8565b6107e0565b6040516102179190610d20565b60405180910390f35b61023a60048036038101906102359190611244565b610849565b6040516102479190611114565b60405180910390f35b61026a6004803603810190610265919061137b565b6109fc565b6040516102779190611114565b60405180910390f35b61029a600480360381019061029591906113d7565b610ac1565b005b6000806006600084815260200190815260200160002090506040518060400160405280601681526020017f6164766973696e675f62616e6b5f617070726f766564000000000000000000008152508160060190816102fa9190611610565b506001915050919050565b606061030f610b44565b600060015467ffffffffffffffff81111561032d5761032c610e68565b5b60405190808252806020026020018201604052801561035b5781602001602082028036833780820191505090505b50905060005b600154811015610402576004600082815260200190815260200160002060010160009054906101000a900473ffffffffffffffffffffffffffffffffffffffff168282815181106103b5576103b46116e2565b5b602002602001019073ffffffffffffffffffffffffffffffffffffffff16908173ffffffffffffffffffffffffffffffffffffffff168152505080806103fa90611740565b915050610361565b508091505090565b60008060006104188a6106fd565b915091506000806104288b6106fd565b915091508373ffffffffffffffffffffffffffffffffffffffff163373ffffffffffffffffffffffffffffffffffffffff161461049a576040517f08c379a0000000000000000000000000000000000000000000000000000000008152600401610491906117fa565b60405180910390fd5b600260008154809291906104ad90611740565b9190505594506040518061014001604052808681526020018f81526020018e81526020018481526020018281526020018b81526020018a8152602001898152602001888152602001878152506005600087815260200190815260200160002060008201518160000155602082015181600101908161052b9190611610565b5060408201518160020190816105419190611610565b5060608201518160030190816105579190611610565b50608082015181600401908161056d9190611610565b5060a08201518160050190816105839190611610565b5060c08201518160060190816105999190611610565b5060e08201518160070190816105af9190611610565b506101008201518160080190816105c69190611610565b5061012082015181600901559050507fad060bb0ac45edc2d1c49d6a33248af6171620c38f88205b462456c64512175a856040516106049190611114565b60405180910390a1505050509998505050505050505050565b610625610b44565b61062f6000610bc2565b565b6000806006600088815260200190815260200160002090508581600201908161065a9190611610565b508481600301908161066c9190611610565b508381600401908161067e9190611610565b50828160050190816106909190611610565b50600191505095945050505050565b60008060009054906101000a900473ffffffffffffffffffffffffffffffffffffffff16905090565b600080600660008581526020019081526020016000209050828160060190816106f19190611610565b50600191505092915050565b600060606004600084815260200190815260200160002060010160009054906101000a900473ffffffffffffffffffffffffffffffffffffffff16915060046000848152602001908152602001600020600001805461075b90611433565b80601f016020809104026020016040519081016040528092919081815260200182805461078790611433565b80156107d45780601f106107a9576101008083540402835291602001916107d4565b820191906000526020600020905b8154815290600101906020018083116107b757829003601f168201915b50505050509050915091565b6000806006600084815260200190815260200160002090506040518060400160405280601681526020017f6164766973696e675f62616e6b5f72656a65637465640000000000000000000081525081600601908161083e9190611610565b506001915050919050565b60006003600081548092919061085e90611740565b9190505590506040518061010001604052808281526020018481526020016040518060200160405280600081525081526020016040518060200160405280600081525081526020016040518060200160405280600081525081526020016040518060200160405280600081525081526020016040518060400160405280600781526020017f6372656174656400000000000000000000000000000000000000000000000000815250815260200183815250600660008381526020019081526020016000206000820151816000015560208201518160010155604082015181600201908161094b9190611610565b5060608201518160030190816109619190611610565b5060808201518160040190816109779190611610565b5060a082015181600501908161098d9190611610565b5060c08201518160060190816109a39190611610565b5060e08201518160070190816109b99190611610565b509050507fccaa8df5c38775d94e64193b5f9fb95978252b697889d886aa6a54a46f8ba55581846040516109ee92919061181a565b60405180910390a192915050565b600060016000815480929190610a1190611740565b919050559050600060046000838152602001908152602001600020905083816000019081610a3f9190611610565b50828160010160006101000a81548173ffffffffffffffffffffffffffffffffffffffff021916908373ffffffffffffffffffffffffffffffffffffffff1602179055507febebffae43ff234e2b6a4e4937a33d8ea339f259ff0661dd9e98ae4a75e5185982604051610ab29190611114565b60405180910390a15092915050565b610ac9610b44565b600073ffffffffffffffffffffffffffffffffffffffff168173ffffffffffffffffffffffffffffffffffffffff1603610b38576040517f08c379a0000000000000000000000000000000000000000000000000000000008152600401610b2f906118b5565b60405180910390fd5b610b4181610bc2565b50565b610b4c610c86565b73ffffffffffffffffffffffffffffffffffffffff16610b6a61069f565b73ffffffffffffffffffffffffffffffffffffffff1614610bc0576040517f08c379a0000000000000000000000000000000000000000000000000000000008152600401610bb790611921565b60405180910390fd5b565b60008060009054906101000a900473ffffffffffffffffffffffffffffffffffffffff169050816000806101000a81548173ffffffffffffffffffffffffffffffffffffffff021916908373ffffffffffffffffffffffffffffffffffffffff1602179055508173ffffffffffffffffffffffffffffffffffffffff168173ffffffffffffffffffffffffffffffffffffffff167f8be0079c531659141344cd1fd0a4f28419497f9722a3daafe3b4186f6b6457e060405160405180910390a35050565b600033905090565b6000604051905090565b600080fd5b600080fd5b6000819050919050565b610cb581610ca2565b8114610cc057600080fd5b50565b600081359050610cd281610cac565b92915050565b600060208284031215610cee57610ced610c98565b5b6000610cfc84828501610cc3565b91505092915050565b60008115159050919050565b610d1a81610d05565b82525050565b6000602082019050610d356000830184610d11565b92915050565b600081519050919050565b600082825260208201905092915050565b6000819050602082019050919050565b600073ffffffffffffffffffffffffffffffffffffffff82169050919050565b6000610d9282610d67565b9050919050565b610da281610d87565b82525050565b6000610db48383610d99565b60208301905092915050565b6000602082019050919050565b6000610dd882610d3b565b610de28185610d46565b9350610ded83610d57565b8060005b83811015610e1e578151610e058882610da8565b9750610e1083610dc0565b925050600181019050610df1565b5085935050505092915050565b60006020820190508181036000830152610e458184610dcd565b905092915050565b600080fd5b600080fd5b6000601f19601f8301169050919050565b7f4e487b7100000000000000000000000000000000000000000000000000000000600052604160045260246000fd5b610ea082610e57565b810181811067ffffffffffffffff82111715610ebf57610ebe610e68565b5b80604052505050565b6000610ed2610c8e565b9050610ede8282610e97565b919050565b600067ffffffffffffffff821115610efe57610efd610e68565b5b610f0782610e57565b9050602081019050919050565b82818337600083830152505050565b6000610f36610f3184610ee3565b610ec8565b905082815260208101848484011115610f5257610f51610e52565b5b610f5d848285610f14565b509392505050565b600082601f830112610f7a57610f79610e4d565b5b8135610f8a848260208601610f23565b91505092915050565b60008060008060008060008060006101208a8c031215610fb657610fb5610c98565b5b60008a013567ffffffffffffffff811115610fd457610fd3610c9d565b5b610fe08c828d01610f65565b99505060208a013567ffffffffffffffff81111561100157611000610c9d565b5b61100d8c828d01610f65565b985050604061101e8c828d01610cc3565b975050606061102f8c828d01610cc3565b96505060808a013567ffffffffffffffff8111156110505761104f610c9d565b5b61105c8c828d01610f65565b95505060a08a013567ffffffffffffffff81111561107d5761107c610c9d565b5b6110898c828d01610f65565b94505060c08a013567ffffffffffffffff8111156110aa576110a9610c9d565b5b6110b68c828d01610f65565b93505060e08a013567ffffffffffffffff8111156110d7576110d6610c9d565b5b6110e38c828d01610f65565b9250506101006110f58c828d01610cc3565b9150509295985092959850929598565b61110e81610ca2565b82525050565b60006020820190506111296000830184611105565b92915050565b600080600080600060a0868803121561114b5761114a610c98565b5b600061115988828901610cc3565b955050602086013567ffffffffffffffff81111561117a57611179610c9d565b5b61118688828901610f65565b945050604086013567ffffffffffffffff8111156111a7576111a6610c9d565b5b6111b388828901610f65565b935050606086013567ffffffffffffffff8111156111d4576111d3610c9d565b5b6111e088828901610f65565b925050608086013567ffffffffffffffff81111561120157611200610c9d565b5b61120d88828901610f65565b9150509295509295909350565b61122381610d87565b82525050565b600060208201905061123e600083018461121a565b92915050565b6000806040838503121561125b5761125a610c98565b5b600061126985828601610cc3565b925050602083013567ffffffffffffffff81111561128a57611289610c9d565b5b61129685828601610f65565b9150509250929050565b600081519050919050565b600082825260208201905092915050565b60005b838110156112da5780820151818401526020810190506112bf565b60008484015250505050565b60006112f1826112a0565b6112fb81856112ab565b935061130b8185602086016112bc565b61131481610e57565b840191505092915050565b6000604082019050611334600083018561121a565b818103602083015261134681846112e6565b90509392505050565b61135881610d87565b811461136357600080fd5b50565b6000813590506113758161134f565b92915050565b6000806040838503121561139257611391610c98565b5b600083013567ffffffffffffffff8111156113b0576113af610c9d565b5b6113bc85828601610f65565b92505060206113cd85828601611366565b9150509250929050565b6000602082840312156113ed576113ec610c98565b5b60006113fb84828501611366565b91505092915050565b7f4e487b7100000000000000000000000000000000000000000000000000000000600052602260045260246000fd5b6000600282049050600182168061144b57607f821691505b60208210810361145e5761145d611404565b5b50919050565b60008190508160005260206000209050919050565b60006020601f8301049050919050565b600082821b905092915050565b6000600883026114c67fffffffffffffffffffffffffffffffffffffffffffffffffffffffffffffffff82611489565b6114d08683611489565b95508019841693508086168417925050509392505050565b6000819050919050565b600061150d61150861150384610ca2565b6114e8565b610ca2565b9050919050565b6000819050919050565b611527836114f2565b61153b61153382611514565b848454611496565b825550505050565b600090565b611550611543565b61155b81848461151e565b505050565b5b8181101561157f57611574600082611548565b600181019050611561565b5050565b601f8211156115c45761159581611464565b61159e84611479565b810160208510156115ad578190505b6115c16115b985611479565b830182611560565b50505b505050565b600082821c905092915050565b60006115e7600019846008026115c9565b1980831691505092915050565b600061160083836115d6565b9150826002028217905092915050565b611619826112a0565b67ffffffffffffffff81111561163257611631610e68565b5b61163c8254611433565b611647828285611583565b600060209050601f83116001811461167a5760008415611668578287015190505b61167285826115f4565b8655506116da565b601f19841661168886611464565b60005b828110156116b05784890151825560018201915060208501945060208101905061168b565b868310156116cd57848901516116c9601f8916826115d6565b8355505b6001600288020188555050505b505050505050565b7f4e487b7100000000000000000000000000000000000000000000000000000000600052603260045260246000fd5b7f4e487b7100000000000000000000000000000000000000000000000000000000600052601160045260246000fd5b600061174b82610ca2565b91507fffffffffffffffffffffffffffffffffffffffffffffffffffffffffffffffff820361177d5761177c611711565b5b600182019050919050565b7f4f6e6c792069737375696e672062616e6b2063616e20637265617465206e657760008201527f2073616c6573636f6e7472616374206f6e20626c6f636b636861696e00000000602082015250565b60006117e4603c836112ab565b91506117ef82611788565b604082019050919050565b60006020820190508181036000830152611813816117d7565b9050919050565b600060408201905061182f6000830185611105565b61183c6020830184611105565b9392505050565b7f4f776e61626c653a206e6577206f776e657220697320746865207a65726f206160008201527f6464726573730000000000000000000000000000000000000000000000000000602082015250565b600061189f6026836112ab565b91506118aa82611843565b604082019050919050565b600060208201905081810360008301526118ce81611892565b9050919050565b7f4f776e61626c653a2063616c6c6572206973206e6f7420746865206f776e6572600082015250565b600061190b6020836112ab565b9150611916826118d5565b602082019050919050565b6000602082019050818103600083015261193a816118fe565b905091905056fea264697066735822122047de05f959b807b1df7120ba1bcf1cec9ccd07762b0c6b744965a43e70cd81ac64736f6c63430008120033",
  "linkReferences": {},
  "deployedLinkReferences": {}
}